{
  "contractName": "Project",
  "abi": [
    {
      "constant": false,
      "inputs": [],
      "name": "status",
      "outputs": [],
      "payable": false,
      "stateMutability": "nonpayable",
      "type": "function"
    },
    {
      "constant": true,
      "inputs": [],
      "name": "recOrg",
      "outputs": [
        {
          "name": "",
          "type": "address"
        }
      ],
      "payable": false,
      "stateMutability": "view",
      "type": "function"
    },
    {
      "constant": true,
      "inputs": [],
      "name": "deadline",
      "outputs": [
        {
          "name": "",
          "type": "uint256"
        }
      ],
      "payable": false,
      "stateMutability": "view",
      "type": "function"
    },
    {
      "constant": false,
      "inputs": [],
      "name": "withdraw",
      "outputs": [],
      "payable": false,
      "stateMutability": "nonpayable",
      "type": "function"
    },
    {
      "constant": true,
      "inputs": [],
      "name": "goal",
      "outputs": [
        {
          "name": "",
          "type": "uint256"
        }
      ],
      "payable": false,
      "stateMutability": "view",
      "type": "function"
    },
    {
      "constant": true,
      "inputs": [],
      "name": "reclaimDeadline",
      "outputs": [
        {
          "name": "",
          "type": "uint256"
        }
      ],
      "payable": false,
      "stateMutability": "view",
      "type": "function"
    },
    {
      "constant": true,
      "inputs": [
        {
          "name": "",
          "type": "uint256"
        }
      ],
      "name": "pledges",
      "outputs": [
        {
          "name": "",
          "type": "uint256"
        }
      ],
      "payable": false,
      "stateMutability": "view",
      "type": "function"
    },
    {
      "constant": false,
      "inputs": [
        {
          "name": "id",
          "type": "uint256"
        }
      ],
      "name": "fund",
      "outputs": [],
      "payable": true,
      "stateMutability": "payable",
      "type": "function"
    },
    {
      "constant": true,
      "inputs": [
        {
          "name": "",
          "type": "address"
        }
      ],
      "name": "balance",
      "outputs": [
        {
          "name": "",
          "type": "uint256"
        }
      ],
      "payable": false,
      "stateMutability": "view",
      "type": "function"
    },
    {
      "constant": true,
      "inputs": [],
      "name": "raised",
      "outputs": [
        {
          "name": "",
          "type": "uint256"
        }
      ],
      "payable": false,
      "stateMutability": "view",
      "type": "function"
    },
    {
      "inputs": [
        {
          "name": "recOrg_",
          "type": "address"
        },
        {
          "name": "goal_",
          "type": "uint256"
        },
        {
          "name": "duration_",
          "type": "uint256"
        },
        {
          "name": "reclaimPeriod_",
          "type": "uint256"
        }
      ],
      "payable": false,
      "stateMutability": "nonpayable",
      "type": "constructor"
    },
    {
      "payable": true,
      "stateMutability": "payable",
      "type": "fallback"
    },
    {
      "anonymous": false,
      "inputs": [
        {
          "indexed": false,
          "name": "recipient",
          "type": "address"
        },
        {
          "indexed": false,
          "name": "totalraised",
          "type": "uint256"
        }
      ],
      "name": "Reached",
      "type": "event"
    },
    {
      "anonymous": false,
      "inputs": [
        {
          "indexed": false,
          "name": "backer",
          "type": "address"
        },
        {
          "indexed": false,
          "name": "amount",
          "type": "uint256"
        },
        {
          "indexed": false,
          "name": "id",
          "type": "uint256"
        }
      ],
      "name": "Funding",
      "type": "event"
    }
  ],
  "bytecode": "0x60606040526000600760006101000a81548160ff0219169083151502179055506000600760016101000a81548160ff021916908315150217905550341561004557600080fd5b60405160808061090083398101604052808051906020019091908051906020019091908051906020019091908051906020019091905050836000806101000a81548173ffffffffffffffffffffffffffffffffffffffff021916908373ffffffffffffffffffffffffffffffffffffffff160217905550600183026001819055506000600281905550603c82024201600381905550603c81026003540160048190555050505050610805806100fb6000396000f3006060604052600436106100a4576000357c0100000000000000000000000000000000000000000000000000000000900463ffffffff168063200d2ed2146100b057806323f59370146100c557806329dcb0cf1461011a5780633ccfd60b14610143578063401938831461015857806399d361e614610181578063ac124081146101aa578063ca1d209d146101e1578063e3d670d7146101f9578063f0ea4bfc14610246575b6100ae600061026f565b005b34156100bb57600080fd5b6100c36103ab565b005b34156100d057600080fd5b6100d861048b565b604051808273ffffffffffffffffffffffffffffffffffffffff1673ffffffffffffffffffffffffffffffffffffffff16815260200191505060405180910390f35b341561012557600080fd5b61012d6104b0565b6040518082815260200191505060405180910390f35b341561014e57600080fd5b6101566104b6565b005b341561016357600080fd5b61016b610797565b6040518082815260200191505060405180910390f35b341561018c57600080fd5b61019461079d565b6040518082815260200191505060405180910390f35b34156101b557600080fd5b6101cb60048080359060200190919050506107a3565b6040518082815260200191505060405180910390f35b6101f7600480803590602001909190505061026f565b005b341561020457600080fd5b610230600480803573ffffffffffffffffffffffffffffffffffffffff169060200190919050506107bb565b6040518082815260200191505060405180910390f35b341561025157600080fd5b6102596107d3565b6040518082815260200191505060405180910390f35b6000600760009054906101000a900460ff1615151561028d57600080fd5b600760019054906101000a900460ff161515156102a957600080fd5b34905080600560003373ffffffffffffffffffffffffffffffffffffffff1673ffffffffffffffffffffffffffffffffffffffff16815260200190815260200160002060008282540192505081905550806002600082825401925050819055506000821115610334578060066000848152602001908152602001600020600082825401925050819055505b7f257d09f84eb389b34d24ffbd9fac3b5834de9d04c4d7546d170b4d88e0ceefd8338284604051808473ffffffffffffffffffffffffffffffffffffffff1673ffffffffffffffffffffffffffffffffffffffff168152602001838152602001828152602001935050505060405180910390a15050565b600354421015156104895760015460025410151561046d576001600760006101000a81548160ff0219169083151502179055507f130bd669f8d41f007ccca55b4424da76bdd8a07f4a0ac06662dd2df4eb6e7ff66000809054906101000a900473ffffffffffffffffffffffffffffffffffffffff16600254604051808373ffffffffffffffffffffffffffffffffffffffff1673ffffffffffffffffffffffffffffffffffffffff1681526020018281526020019250505060405180910390a15b6001600760016101000a81548160ff0219169083151502179055505b565b6000809054906101000a900473ffffffffffffffffffffffffffffffffffffffff1681565b60035481565b60006003544210151561079457600760009054906101000a900460ff1615156106ab57600454421115156105fa57600560003373ffffffffffffffffffffffffffffffffffffffff1673ffffffffffffffffffffffffffffffffffffffff1681526020019081526020016000205490506000600560003373ffffffffffffffffffffffffffffffffffffffff1673ffffffffffffffffffffffffffffffffffffffff1681526020019081526020016000208190555060008111156105f5573373ffffffffffffffffffffffffffffffffffffffff166108fc829081150290604051600060405180830381858888f1935050505015156105f45780600560003373ffffffffffffffffffffffffffffffffffffffff1673ffffffffffffffffffffffffffffffffffffffff168152602001908152602001600020819055505b5b6106aa565b3373ffffffffffffffffffffffffffffffffffffffff166000809054906101000a900473ffffffffffffffffffffffffffffffffffffffff1673ffffffffffffffffffffffffffffffffffffffff1614156106a9576000809054906101000a900473ffffffffffffffffffffffffffffffffffffffff1673ffffffffffffffffffffffffffffffffffffffff166108fc6002549081150290604051600060405180830381858888f19350505050505b5b5b600760009054906101000a900460ff16801561071357503373ffffffffffffffffffffffffffffffffffffffff166000809054906101000a900473ffffffffffffffffffffffffffffffffffffffff1673ffffffffffffffffffffffffffffffffffffffff16145b15610793576000809054906101000a900473ffffffffffffffffffffffffffffffffffffffff1673ffffffffffffffffffffffffffffffffffffffff166108fc6002549081150290604051600060405180830381858888f193505050501515610792576000600760006101000a81548160ff0219169083151502179055505b5b5b50565b60015481565b60045481565b60066020528060005260406000206000915090505481565b60056020528060005260406000206000915090505481565b600254815600a165627a7a723058209529be9d8b37c11d4c26eb66aa1907b600014638bf36532b5618d097b0af3ddc0029",
  "source": "pragma solidity ^0.4.16;\n\ninterface token {\n    function transfer(address receiver, uint amount);\n}\n\ncontract Project {\n    // The organisation that should be recieving the money from this contract\n    address public recOrg;\n    // How much money we want to raise, in wei\n    uint public goal;\n    // How much money we have raised thus far\n    uint public raised;\n    // When is the deadline of this campaign\n    uint public deadline;\n    // Latest time when a user can re-claim there money before the org can claim it regardless\n    uint public reclaimDeadline;\n\n    // Keep track of how much each sender has sent in\n    mapping(address => uint256) public balance;\n    // Keep track of the pledges made by \"identified\" individuals\n    mapping(uint => uint256) public pledges;\n\n    // If the goal has been reached or not\n    bool reached = false;\n    // If the contract is closed or not\n    bool closed = false;\n\n    event Reached(address recipient, uint totalraised);\n    event Funding(address backer, uint amount, uint id);\n\n    // Constructor for creating a new project\n    function Project(\n        address recOrg_,    // Address of the receiving organisation\n        uint goal_,         // Funding goal in wei\n        uint duration_,     // Duration in minutes the campaign should be active\n        uint reclaimPeriod_ // Period during which money can be claimed back\n    ) public {\n        recOrg = recOrg_;\n        goal = goal_ * 1 wei;\n        raised = 0;\n        deadline = now + duration_ * 1 minutes;\n        reclaimDeadline = deadline + reclaimPeriod_ * 1 minutes;\n    }\n\n    // Function to fund this project\n    function fund(uint id) public payable {\n        require(!reached);\n        require(!closed);\n        uint amount = msg.value;\n        // Always add it to the generic info\n        balance[msg.sender] += amount;\n        raised += amount;\n        if (id > 0) {\n            pledges[id] += amount;\n        }\n        Funding(msg.sender, amount, id);\n    }\n\n    // Default function which we let be the same thing as\n    // funding anonymously\n    function () public payable {\n        fund(0);\n    }\n    \n    // Check if the goal has been reached or not\n    function status() public {\n        if (now >= deadline) {\n            if (raised >= goal) {\n                reached = true;\n                Reached(recOrg, raised);\n            }\n            closed = true;\n        }\n    }\n\n\n    // Try to withdraw money, which is allowed for no-one before the deadline\n    // after the daedline if successfulle and after the deadline by sender if no\n    // successful until the timeout when again the rec. can withdraw the funds.\n    function withdraw() public {\n        if (now >= deadline) {\n            if (!reached) {\n                if (now <= reclaimDeadline) {\n                    // Double locking to prevent a recieving cotnract to drain it all\n                    uint amount = balance[msg.sender];\n                    balance[msg.sender] = 0;\n                    if (amount > 0) {\n                        if (!msg.sender.send(amount)) {\n                            balance[msg.sender] = amount;\n                        }\n                    }\n                } else {\n                    // After the reclaim deadline so we should only send to the org\n                    if (recOrg == msg.sender) {\n                        recOrg.send(raised);\n                    }\n                }\n            }\n\n            if (reached && recOrg == msg.sender) {\n                if (!recOrg.send(raised)) {\n                    //If we fail to send the funds to recOrg, unlock funders balance, this\n                    // should not happend but we have this as a safe-guard to we do not miss \n                    // something and end up in a deadlock\n                    reached = false;\n                }\n            }\n        }\n    }\n}\n",
  "sourcePath": "/Users/einar-andrebydal/Documents/development/hackathon/contract_testing/contracts/Project.sol",
  "compiler": {
    "name": "solc",
    "version": "0.4.19+commit.c4cbbb05.Emscripten.clang"
  },
  "schemaVersion": "1.0.1",
  "updatedAt": "2018-02-21T21:30:04.747Z"
}